:100000000C947F000C94ED010C949C000C949C00CB
:100010000C949C000C949C000C949C000C949C00F0
:100020000C949C000C949C000C949C000C949C00E0
:100030000C949C000C949C000C949C000C949C00D0
:100040000C949C000C949C000C949C000C949C00C0
:100050000C949C000C949C000C949C000C949C00B0
:100060000C949C000C949C000C949C000C949C00A0
:100070000403090412036B0075006E0063002D0079
:1000800064006400720010034400440052002D001C
:100090005000410044001201100100000008C01689
:1000A000E8030001010200010902220001010080B1
:1000B0000A090400000103000000092101010001F8
:1000C0002234000705810308006405010902A1012B
:1000D0000901A1000509190129031500250195034E
:1000E000750181029501750581030501093009310A
:1000F00009381581257F750895038106C0C0112434
:100100001FBECFEFD4E0DEBFCDBF11E0A0E0B1E075
:10011000ECE5F7E002C005900D92A430B107D9F7E5
:1001200011E0A4E0B1E001C01D92A234B107E1F7F3
:100130000E944A030C94AC030C94000085B78260C3
:1001400085BF8BB780648BBF8BE4809318018AE5F1
:100150008093170108951F93CF93DF939091280107
:10016000935097FDA2C020912501809124018D32EA
:1001700009F099C0983009F096C0CCE0D0E0C21BDD
:10018000D109C45DDE4F83EC80930C018AE5809336
:100190000001109204018881807629F0CE010E942E
:1001A0002703282F77C09A8110921501898188230F
:1001B00021F41092160122E067C0853019F4909363
:1001C000290161C0863009F04AC08B81813019F461
:1001D00086E990E01BC0823041F488EA90E0909379
:1001E00027018093260122E236C08330F9F48A8108
:1001F000882341F480E790E09093270180932601C3
:1002000024E029C0813041F484E790E090932701F5
:100210008093260122E11FC08230E1F486E890E05D
:10022000909327018093260120E115C0813241F48B
:100230008AEB90E0909327018093260129E00BC080
:10024000823241F48AEC90E090932701809326015A
:1002500024E301C020E080E4809304011BC08830C7
:1002600021F421E08BE291E011C0893019F49093E0
:100270002B0109C08A3011F421E006C08B3019F43B
:100280008BE48093180120E085E191E090932701B1
:10029000809326018F81882321F48E81821708F4B0
:1002A000282F20930101109228018091000184FFE2
:1002B0004AC0809101018F3F09F445C0182F893051
:1002C00008F018E0811B8093010180910C0198E8EF
:1002D000892780930C01112341F12091260130914F
:1002E00027018091040186FF0DC0ADE0B1E080E000
:1002F00090E0F901E80FF91FE491ED9301961817CA
:10030000C1F708C0912FD901EDE0F1E08D91819303
:100310009150E1F71150812F90E01F5F0196820FFD
:10032000931F90932701809326018DE091E0612F28
:100330000E94E901612F6C5F6C3019F08FEF8093A0
:1003400001016093000194E180B38C7031F491500D
:10035000D9F71092290110922301DF91CF911F91BB
:1003600008951F93DC01162F8091170184FF07C0A9
:100370008091180198E889278093180103C08AE5C5
:1003800080931701912FE9E1F1E08D9181939150D4
:100390001916DCF389E191E0612F0E94E9011C5FED
:1003A000109317011F910895A82FB92F80E090E0B6
:1003B00041E050EA609530E009C02D918227979581
:1003C000879510F084279527305EC8F36F5FA8F3F8
:1003D0000895EADF8D939D930895CF93CFB7CF9380
:1003E000C395839BE9F7839B09C0839B07C0839BCD
:1003F00005C0839B03C0839B01C0A3C0DF93C09152
:100400002501DD27C45DDE4F839B02C0DF91EBCF6A
:100410002F930F931F9300B32FEF03FB20F94F93FC
:100420003F9310B34FEF012703FB21F93BE031C0AD
:100430004E7F012F10B3216028C0102F4D7F226006
:10044000000000B329C04B7F2460012F000010B3CF
:100450002BC010B3477F28602AC04F7E00B32061B5
:100460002CC04F7D10B320622FC04F7B00B320649F
:1004700032C0422700B349934FEF0000102713FB0F
:1004800020F910B31C70C9F1297F91F2012703FBF9
:1004900021F900B3237F89F2315058F1102713FB63
:1004A00022F910B3277E79F2012703FB23F92F7C71
:1004B00081F200B3102713FB24F92F7971F200C0E9
:1004C00010B3012703FB25F92F7359F200C000B3C5
:1004D000102713FB26F9223040F200C010B3012789
:1004E00003FB27F9243028F64F77206810B300006B
:1004F000F9CF10E41ABF002719C03B503195C31B38
:10050000D04010E41ABF0881033CF9F00B34E9F045
:10051000209123011981110F1213EDCF4A81441F3D
:10052000093641F10D3211F0013E29F700932A01FD
:100530003F914F911F910F912F91DF91CAB7C6FD47
:100540004FCFCF91CFBFCF91189520912A01222371
:1005500079F310912801112369F534306AF1309351
:10056000280120932401109125013BE0311B309399
:10057000250122C0009128010130E4F40AE54F7002
:1005800049F43091000134FD19C000930001CCE022
:10059000D1E018C03091170134FD10C0009317014D
:1005A000C8E1D1E00FC02795A8F45150A9F4220F5B
:1005B0000000F9CF4AE503C042ED01C0432FC4E17A
:1005C000D0E032E011B31C60939A11BB02B320E477
:1005D0001CE05F93012756E002BB279520F45150A1
:1005E00021F4220FF9CF012756E000003B5A02BB4D
:1005F000D0F2279528F4515029F4220F0000F9CFAA
:10060000012756E0279502BB20F4515021F4220F18
:10061000F9CF012756E02991332302BB21F6037F4E
:1006200010912901110FC651D04002BB11F0109357
:10063000230110E41ABF086011B3137F402F437FDA
:100640005F9100C000C002BB11BB42BB71CFFC0177
:10065000808180768032E1F48181813041F487E0CD
:1006600091E0909327018093260184E008958230E1
:1006700041F48BE091E0909327018093260181E083
:1006800008958A3029F4838180930B0180E00895D6
:1006900080E008952EE088E190E00FB6F894A895E8
:1006A00081BD0FBE21BD0E949E008B9A20E048EBC9
:1006B0005BE004C0A895CA010197F1F72150D1F77A
:1006C0008B987894A8950E94AB008091170184FFC5
:1006D000F9CF4091050150910601141615061CF042
:1006E00080EE9FEF02C080E290E0840F951F36E01D
:1006F000959587953A95E1F780930801282F332740
:1007000027FD30958091020190910301280F391F38
:100710003093030120930201121613061CF080EEA1
:100720009FEF02C080E290E0820F931F26E0959534
:1007300087952A95E1F780930901992787FD909580
:10074000481B590B509306014093050187E091E047
:0C07500064E00E94B101B6CFF894FFCF26
:04075C005AFFC0017F
:00000001FF
