:100000000C947B000C94E9010C9498000C949800DB
:100010000C9498000C9498000C9498000C94980000
:100020000C9498000C9498000C9498000C949800F0
:100030000C9498000C9498000C9498000C949800E0
:100040000C9498000C9498000C9498000C949800D0
:100050000C9498000C9498000C9498000C949800C0
:100060000C9498000C9498000C9498000C949800B0
:100070000403090412036B0075006E0063002D0079
:1000800064006400720010034400440052002D001C
:100090005000410044001201100100000008C01689
:1000A000E8030001010200010902220001010080B1
:1000B0000A090400000103000000092101010001F8
:1000C000222B000705810308006405010905A10131
:1000D0000901A10009300931150026FF00750895B6
:1000E000028102C0050919012908150025017501C1
:1000F00095088102C00011241FBECFEFD4E0DEBFFF
:10010000CDBF11E0A0E0B1E0ECE0F7E002C0059067
:100110000D92A230B107D9F711E0A2E0B1E001C021
:100120001D92AD33B107E1F70E9446030C9484039E
:100130000C94000085B7826085BF8BB780648BBF4D
:100140008BE4809313018AE58093120108951F9335
:10015000CF93DF9390912301935097FDA2C02091FC
:10016000200180911F018D3209F099C0983009F06B
:1001700096C0CCE0D0E0C21BD109C95DDE4F83EC54
:10018000809307018AE58093000110920201888123
:10019000807629F0CE010E942303282F77C09A8110
:1001A000109210018981882321F41092110122E01C
:1001B00067C0853019F49093240161C0863009F03E
:1001C0004AC08B81813019F486E990E01BC08230EF
:1001D00041F488EA90E0909322018093210122E289
:1001E00036C08330F9F48A81882341F480E790E0B7
:1001F000909322018093210124E029C0813041F4B1
:1002000084E790E0909322018093210122E11FC0B6
:100210008230E1F486E890E09093220180932101FE
:1002200020E115C0813241F48AEB90E090932201E5
:100230008093210129E00BC0823241F48AEC90E0E6
:1002400090932201809321012BE201C020E080E401
:10025000809302011BC0883021F421E086E291E006
:1002600011C0893019F49093260109C08A3011F425
:1002700021E006C08B3019F48BE48093130120E059
:1002800080E191E090932201809321018F81882366
:1002900021F48E81821708F4282F209301011092F7
:1002A00023018091000184FF4AC0809101018F3FAA
:1002B00009F445C0182F893008F018E0811B80939D
:1002C00001018091070198E8892780930701112394
:1002D00041F120912101309122018091020186FF9C
:1002E0000DC0A8E0B1E080E090E0F901E80FF91F4F
:1002F000E491ED9301961817C1F708C0912FD90129
:10030000E8E0F1E08D9181939150E1F71150812F58
:1003100090E01F5F0196820F931F909322018093BC
:10032000210188E091E0612F0E94E501612F6C5F5F
:100330006C3019F08FEF809301016093000194E11C
:1003400080B38C7031F49150D9F71092240110923F
:100350001E01DF91CF911F9108951F93DC01162F8D
:100360008091120184FF07C08091130198E88927CA
:100370008093130103C08AE580931201912FE4E179
:10038000F1E08D91819391501916DCF384E191E0B5
:10039000612F0E94E5011C5F109312011F910895C7
:1003A000A82FB92F80E090E041E050EA609530E05E
:1003B00009C02D9182279795879510F0842795275E
:1003C000305EC8F36F5FA8F30895EADF8D939D93C5
:1003D0000895CF93CFB7CF93C395839BE9F7839BC2
:1003E00009C0839B07C0839B05C0839B03C0839B7D
:1003F00001C0A3C0DF93C0912001DD27C95DDE4F9E
:10040000839B02C0DF91EBCF2F930F931F9300B319
:100410002FEF03FB20F94F933F9310B34FEF0127CA
:1004200003FB21F93BE031C04E7F012F10B3216067
:1004300028C0102F4D7F2260000000B329C04B7FE1
:100440002460012F000010B32BC010B3477F286039
:100450002AC04F7E00B320612CC04F7D10B32062B4
:100460002FC04F7B00B3206432C0422700B34993B2
:100470004FEF0000102713FB20F910B31C70C9F1D7
:10048000297F91F2012703FB21F900B3237F89F231
:10049000315058F1102713FB22F910B3277E79F25F
:1004A000012703FB23F92F7C81F200B3102713FBF4
:1004B00024F92F7971F200C010B3012703FB25F94D
:1004C0002F7359F200C000B3102713FB26F9223016
:1004D00040F200C010B3012703FB27F9243028F6AF
:1004E0004F77206810B30000F9CF10E41ABF00273F
:1004F00019C03B503195C31BD04010E41ABF08818E
:10050000033CF9F00B34E9F020911E011981110F21
:100510001213EDCF4A81441F093641F10D3211F01B
:10052000013E29F7009325013F914F911F910F91B3
:100530002F91DF91CAB7C6FD4FCFCF91CFBFCF91DB
:10054000189520912501222379F31091230111237D
:1005500069F534306AF13093230120931F01109123
:1005600020013BE0311B3093200122C00091230188
:100570000130E4F40AE54F7049F43091000134FD94
:1005800019C000930001C7E0D1E018C030911201FA
:1005900034FD10C000931201C3E1D1E00FC02795D4
:1005A000A8F45150A9F4220F0000F9CF4AE503C086
:1005B00042ED01C0432FC4E1D0E032E011B31C6032
:1005C000939A11BB02B320E41CE05F93012756E02D
:1005D00002BB279520F4515021F4220FF9CF0127B7
:1005E00056E000003B5A02BBD0F2279528F4515048
:1005F00029F4220F0000F9CF012756E0279502BB0E
:1006000020F4515021F4220FF9CF012756E029910F
:10061000332302BB21F6037F10912401110FC65131
:10062000D04002BB11F010931E0110E41ABF086005
:1006300011B3137F402F437F5F9100C000C002BB06
:1006400011BB42BB71CFFC01808180768032E1F426
:100650008181813041F483E091E090932201809385
:10066000210183E00895823041F486E091E0909387
:1006700022018093210181E008958A3029F4838149
:100680008093060180E0089580E008958FE78093CD
:100690000301809304011BBA1ABA8FEF85BB81E076
:1006A00084BB2EE088E190E00FB6F894A89581BD58
:1006B0000FBE21BD0E949A008B9A20E048EB5BE0C0
:1006C00004C0A895CA010197F1F72150D1F78B9882
:1006D000789400E0FF24F394A8950E94A70019B332
:1006E0008091120184FFF8CF1017B1F3812F80950C
:1006F0008093050185B38F2585BB83E091E063E09E
:0C0700000E94AD01012FE8CFF894FFCF5C
:02070C005AFF92
:00000001FF
